:200000000C9435000C945D000C945D000C945D000C945D000C945D000C945D000C945D0020
:200020000C945D000C945D000C945D000C945D000C945D000C945D000C945D000C945D00D8
:200040000C9457070C945D000C9444040C9476040C945D000C945D000C945D000C945D00AF
:200060000C945D000C945D00A60411241FBECFEFD8E0DEBFCDBF11E0A0E0B1E0E8E6F7E183
:2000800002C005900D92A832B107D9F721E0A8E2B1E001C01D92A23DB207E1F710E0CAE66C
:2000A000D0E004C02297FE010E945A09C836D107C9F70E94EA040C94B20B0C9400000C944C
:2000C000AA0B40E452E46FE070E088E291E00E94330626E040E052EC61E070E088E291E0EC
:2000E0000C94E2034AE050E062E070E088E291E00E94E50588E090E00E945F004AE050E0F5
:20010000682F88E291E00C941C06CF92DF92EF92FF92CF93DF9380E090E00E945F00682F8B
:2001200070E080E090E0C1E0D0E0CC24D62EE72EF82ECE010E945F00A7019601280F311D8B
:20014000411D511DCA01B9012196C430D10569F7DF91CF91FF90EF90DF90CF900895CF92C3
:20016000DF92EF92FF92CF93DF9384E090E00E945F00682F70E080E090E0C5E0D0E0CC2457
:20018000D62EE72EF82ECE010E945F00A7019601280F311D411D511DCA01B9012196C8308C
:2001A000D10569F7DF91CF91FF90EF90DF90CF9008952F923F924F925F926F927F928F9229
:2001C0009F92AF92BF92CF92DF92EF92FF920F931F93CF93DF93CDB7DEB768970FB6F894E7
:2001E000DEBF0FBECDBF322E232E942E852E762E672E582E492EA982BA86CB86DC86ED861C
:20020000FE860F87188B8DA5898B8EA58A8B8FA58B8B88A98C8B89A98D8B8AA98E8B8BA937
:200220008F8B8CA9888F81E08A831B821C821D821E821F821886198629813A854B855C8578
:200240006D857E858F859889A0E00E944C0909F00CF469C02981217030E040E050E060E000
:2002600070E080E090E0A0E00E944C0921F1A32CB22CC92CD82CE72CF62C052D142D2A81DC
:200280003B814C815D816E817F81888599850E94FE07A988BA88CB88DC88ED88FE880F8979
:2002A000188D0E9457082A833B834C835D836E837F8388879987A32CB22CC92CD82CE72CA3
:2002C000F62C052D142D232D322D492D582D672D762D852D942D0E94FE07A988BA88CB88C8
:2002E000DC88ED88FE880F89188D0E945708322E232E942E852E762E672E582E492E29815B
:200300003A854B855C856D857E858F85988901E00E942E0929833A874B875C876D877E876E
:200320008F87988B89CFA988BA88CB88DC88ED88FE880F89188D2A813B814C815D816E81C9
:200340007F81888599850E945708B901CA0168960FB6F894DEBF0FBECDBFDF91CF911F9127
:200360000F91FF90EF90DF90CF90BF90AF909F908F907F906F905F904F903F902F9008951E
:200380004F925F926F927F928F929F92AF92BF92CF92DF92EF92FF920F931F93CF93DF9389
:2003A00000D000D0CDB7DEB759016A01DD0CAA08BA2C6501A982BA82CB82DC822B013C015D
:2003C000770C4408542C320147015801BB0C8808982C54018F928F928F928F921F930F93B2
:2003E000FF92EF9259016A01E980FE2C0E2D1E2D9B01AC01642D742D842D942D0E94D900A5
:200400000FB6F894DEBF0FBECDBF0F900F900F900F90DF91CF911F910F91FF90EF90DF907C
:20042000CF90BF90AF909F908F907F906F905F904F900895FF920F931F93CF93DF93CDB7CB
:20044000DEB72C970FB6F894DEBF0FBECDBF8C0168E171E00E94A70688E291E00E94FF0209
:2004600018161906CCF788E291E00E941803F82E682FCE0107960E94F506B801CE010196EF
:200480000E94D406BE01695F7F4FCE0101960E943907BC01C8010E94BD06CE0101960E9450
:2004A0003906CE0107960E9439068AE0F812D4CFC8012C960FB6F894DEBF0FBECDBFDF9157
:2004C000CF911F910F91FF9008958F929F92AF92BF92CF92DF92EF92FF920F931F93CF93C2
:2004E000DF93CDB7DEB72A970FB6F894DEBF0FBECDBF0E9485009B01AC016F833887498778
:200500005A870E94AF006B017C01CE0101960E941A02CE0101960E944C074B015C01870110
:2005200076012F81388549855A850E94C0016B017C014AE050E064E070E088E291E00E9473
:20054000E5052AE030E0B501A40188E291E00E94FD052AE030E0B701A60188E291E00E94C7
:20056000FD05CE0101960E9439062A960FB6F894DEBF0FBECDBFDF91CF911F910F91FF907C
:20058000EF90DF90CF90BF90AF909F908F9008958130910519F40E94720006C0039711F0CC
:2005A00080E008950E94650281E00895CF92DF92EF92FF92CF93DF9300D000D000D0CDB78B
:2005C000DEB7CE0101960E941A02CE0101960E944C076B017C01CE0101960E943906C60110
:2005E0000E94C80226960FB6F894DEBF0FBECDBFDF91CF91FF90EF90DF90CF900895FC0146
:20060000818D228D90E0805C9F4F821B91098F7399270895FC01918D828D981731F0828D44
:20062000E80FF11D858D90E008958FEF9FEF0895FC01918D828D981761F0828DDF01A80F1D
:20064000B11D5D968C91928D9F5F9F73928F90E008958FEF9FEF08958CE994E0892B49F0E0
:2006600080E090E0892B29F00E949C0481110C9400000895FC01848DDF01A80FB11DA35A5C
:20068000BF4F2C91848D90E001968F739927848FA689B7892C93A089B1898C9180648C93F1
:2006A000938D848D981306C00288F389E02D80818F7D80830895CF93DF93EC01888D882357
:2006C000C9F0EA89FB89808185FD05C0A889B9898C9186FD0FC00FB607FCF5CF808185FF2F
:2006E000F2CFA889B9898C9185FFEDCFCE010E943A03E7CFDF91CF910895CF92DF92FF9235
:200700000F931F93CF93DF931F92CDB7DEB76C0181E0D60158968C9358975B969C915B9736
:200720005C968C915C97981307C05096ED91FC915197808185FD2EC0F601038D10E00F5F16
:200740001F4F0F731127F02EF601848DF81211C00FB607FCF9CFD6015096ED91FC91519730
:20076000808185FFF1CFC60169830E943A036981EBCF838DE80FF11DE35AFF4F6083D601A4
:200780005B960C935B975296ED91FC915397808180620CC0D6015696ED91FC9157976083AC
:2007A0005096ED91FC91519780818064808381E090E00F90DF91CF911F910F91FF90DF90EA
:2007C000CF900895BF92CF92DF92EF92FF92CF93DF93EC016A017B01B22EE889F98982E00B
:2007E0008083411581EE580761057105A1F060E079E08DE390E0A70196010E94DC072150B7
:200800003109410951095695479537952795211580E1380798F0E889F989108260E874E824
:200820008EE190E0A70196010E94DC0721503109410951095695479537952795EC85FD8584
:200840003083EE85FF852083188EEC89FD89B082EA89FB89808180618083EA89FB898081A4
:2008600088608083EA89FB89808180688083EA89FB8980818F7D8083DF91CF91FF90EF90C5
:20088000DF90CF90BF9008951F920F920FB60F9211242F938F939F93EF93FF93E0913801DD
:2008A000F09139018081E0913E01F0913F0182FD12C09081809141018F5F8F732091420172
:2008C000821751F0E0914101F0E0E85DFE4F958F8093410101C08081FF91EF919F918F918E
:2008E0002F910F900FBE0F901F9018951F920F920FB60F9211242F933F934F935F936F937A
:200900007F938F939F93AF93BF93EF93FF9388E291E00E943A03FF91EF91BF91AF919F913F
:200920008F917F916F915F914F913F912F910F900FBE0F901F90189588E291E00E94FF0242
:2009400021E0892B09F420E0822F089510922B0110922A0188EE93E0A0E0B0E080932C01C3
:2009600090932D01A0932E01B0932F018AE091E0909329018093280185EC90E090933501B3
:200980008093340184EC90E0909337018093360180EC90E0909339018093380181EC90E028
:2009A00090933B0180933A0182EC90E090933D0180933C0186EC90E090933F0180933E0164
:2009C00010924101109242011092430110924401089508950E94A1070E94E9040E9461006B
:2009E000CCE2D3E00E94D6022097E1F30E942C03F9CFCF92DF92EF92FF920F931F93CF935E
:200A0000DF936C017A01EB01E60EF71E00E010E0CE15DF0561F06991D601ED91FC91019032
:200A2000F081E02DC6010995080F191FF1CFC801DF91CF911F910F91FF90EF90DF90CF90FF
:200A400008956115710581F0DB010D900020E9F7AD0141505109461B570BDC01ED91FC91DF
:200A60000280F381E02D099480E090E00895DC01ED91FC910190F081E02D099466E171E03D
:200A80000C9421058F929F92AF92BF92CF92DF92EF92FF920F931F93CF93DF93CDB7DEB787
:200AA000A1970FB6F894DEBF0FBECDBF7C01C42EE52FCB01D22E19A221E02D1510F02AE060
:200AC000D22E8E010F5D1F4F8D2C912CA12CB12C6C2D7E2FA50194010E94DC078C2DD29E5E
:200AE00080191124015011098A3014F4805D01C0895CF8018083211531054105510521F063
:200B0000C22EE32FCA01E4CFB801C7010E942105A1960FB6F894DEBF0FBECDBFDF91CF91BE
:200B20001F910F91FF90EF90DF90CF90BF90AF909F908F900895CF92DF92EF92FF920F938A
:200B40001F93CF93DF93EC016A017B012115310579F4E881F9810190F081E02D642FDF916D
:200B6000CF911F910F91FF90EF90DF90CF9009942A303105E9F477FF1AC06DE20E94370562
:200B80008C0144275527BA014C195D096E097F092AE0CE010E944205800F911FDF91CF918B
:200BA0001F910F91FF90EF90DF90CF9008952AE0B701A601CE01DF91CF911F910F91FF9085
:200BC000EF90DF90CF900C9442050F931F93CF93DF93EC019A01AB01662757FD6095762F0A
:200BE0000E949B058C01CE010E943E05800F911FDF91CF911F910F9108950F931F93CF93C0
:200C0000DF93EC010E949B058C01CE010E943E05800F911FDF91CF911F910F9108952115C0
:200C2000310541F4DC01ED91FC910190F081E02D642F09940C9442050F931F93CF93DF9313
:200C4000EC019A01462F50E060E070E00E940F068C01CE010E943E05800F911FDF91CF91D0
:200C60001F910F910895FC0144835583668377830895FC01808191810C94050ACF93DF93D8
:200C8000EC0188819981009711F00E94050A198218821D821C821B821A82DF91CF910895E3
:200CA0000F931F93CF93DF93EC018B016F5F7F4F888199810E94940A009731F099838883B5
:200CC0001B830A8381E001C080E0DF91CF911F910F910895CF93DF93EC0188819981892B12
:200CE00029F08A819B818617970760F4CE010E945006882341F08C819D81892B19F4E8812D
:200D0000F981108281E0DF91CF910895EF92FF920F931F93CF93DF93EC017B018A01BA0110
:200D20000E946A06811104C0CE010E943E0607C01D830C83B701888199810E948E0BCE01BB
:200D4000DF91CF911F910F91FF90EF900895FC011182108213821282158214826115710564
:200D600059F0FB0101900020E9F7AF0141505109461B570B0C9486060895CF93DF93EC01B5
:200D8000FB018617970761F0608171816115710529F0448155810E94860602C00E943E0682
:200DA000CE01DF91CF910895FC011182108213821282158214820C94BD06CF93DF93EC015B
:200DC0006115710561F0FB0101900020E9F7AF0141505109461B570B0E94860602C00E9459
:200DE0003E06CE01DF91CF910895CF93DF9300D0CDB7DEB7FC0111821082138212821582D4
:200E0000148269831A82BE016F5F7F4F0E94DD060F900F90DF91CF910895EF92FF920F9375
:200E20001F93CF93DF93EC017B010C811D816115710511F480E016C04115510591F0040F31
:200E4000151FB8010E946A068823A1F3288139818C819D81B701820F931F0E948E0B1D83F0
:200E60000C8381E0DF91CF911F910F91FF90EF900895CF93DF93EC01FB014481558160817E
:200E800071810E940D07811103C0CE010E943E06CE01DF91CF910895FC01808191810097BD
:200EA00011F00C945E0B60E070E0CB0108951F920F920FB60F9211242F933F938F939F935A
:200EC000AF93BF938091C6019091C701A091C801B091C9013091C50123E0230F2D3720F484
:200EE0000196A11DB11D05C026E8230F0296A11DB11D2093C5018093C6019093C701A09335
:200F0000C801B093C9018091CA019091CB01A091CC01B091CD010196A11DB11D8093CA0124
:200F20009093CB01A093CC01B093CD01BF91AF919F918F913F912F910F900FBE0F901F9087
:200F40001895789484B5826084BD84B5816084BD85B5826085BD85B5816085BDEEE6F0E0C2
:200F6000808181608083E1E8F0E01082808182608083808181608083E0E8F0E0808181601C
:200F80008083E1EBF0E0808184608083E0EBF0E0808181608083EAE7F0E0808184608083C1
:200FA0008081826080838081816080838081806880831092C1000895A1E21A2EAA1BBB1B14
:200FC000FD010DC0AA1FBB1FEE1FFF1FA217B307E407F50720F0A21BB30BE40BF50B661F1F
:200FE000771F881F991F1A9469F760957095809590959B01AC01BD01CF010895DF93CF9372
:201000001F930F939A9DF02D219FF00D8B9DF00D8A9DE02DF10D039FF00D029FE00DF11DD9
:201020004E9DE00DF11D5E9DF00D4F9DF00D7F936F93BF92AF925F934F93D5010E945E0990
:201040008B01AC01D7010E945E09EB01E80FF91FD6010E944E082F913F91D6010E945E093C
:20106000C60FD71FE81FF91FAF91BF910E944E082F913F910E945E09C60FD71FE81FF91F7B
:20108000D6010E945E09E60FF71F9801BE01CF0111240F911F91CF91DF9108950E945E0942
:2010A000460F571FC81FD91F08F431960895689401C0E894F92FF12B12F00C948B08A0E0F4
:2010C000B0E0E5E6F8E00C94FD08092E059422F40E94E708112392F4F0E80F26FFEFE09498
:2010E000F09400951095B094C094D094A194BF0ACF0ADF0AEF0AFF0A0F0B1F0B0E949608F0
:2011000007FC0E94E708CDB7DEB7ECE00C941909689401C0E8948F929F92CF93DF930E9493
:201120009608DF91CF919F908F90089588249924F401E401B0E49F93AA279A158B049C049E
:20114000ED05FE05CF05D007A10798F4AD2FDC2FCF2FFE2FE92D982C892E982F872F762FF6
:20116000652F542F432F322F2227B85031F7BF9127C01B2EBF91BB27220F331F441F551F00
:20118000661F771F881F991F881C991CEE1FFF1FCC1FDD1FAA1FBB1F8A149B04EC05FD0597
:2011A000CE05DF05A007B10748F08A189B08EC09FD09CE09DF09A00BB10B21601A94E1F675
:2011C0002EF49401AF01BE01CD01000C0895609570958095909530954095509521953F4F7B
:2011E0004F4F5F4F6F4F7F4F8F4F9F4F08952F923F924F925F926F927F928F929F92AF92A5
:20120000BF92CF92DF92EF92FF920F931F93CF93DF93CDB7DEB7CA1BDB0B0FB6F894DEBF9F
:201220000FBECDBF09942A88398848885F846E847D848C849B84AA84B984C884DF80EE80EC
:20124000FD800C811B81AA81B981CE0FD11D0FB6F894DEBF0FBECDBFED01089597FB10F84C
:20126000169400080F93083098F00850232F342F452F562F672F782F892F902DF4CF059446
:20128000979587957795679557954795379527950A95AAF70F9108950024A7FD00942A1794
:2012A00030054005500560057005800590050895EE0FFF1F0590F491E02D0994A29FB001FD
:2012C000B39FC001A39F700D811D1124911DB29F700D811D1124911D0895CF93DF93823049
:2012E000910510F482E090E0E091D001F091D10120E030E0A0E0B0E0309739F14081518149
:2013000048175907B8F04817590771F482819381109729F013969C938E9312972CC09093BA
:20132000D1018093D00127C02115310531F04217530718F0A901DB0101C0EF019A01BD0138
:20134000DF010280F381E02DD7CF21153105F9F0281B390B2430310580F48A819B8161158D
:20136000710521F0FB019383828304C09093D1018093D001FE01329644C0FE01E20FF31F65
:201380008193919322503109398328833AC02091CE013091CF01232B41F4209102013091FF
:2013A00003013093CF012093CE0120910001309101012115310541F42DB73EB7409104014F
:2013C00050910501241B350BE091CE01F091CF01E217F307A0F42E1B3F0B2817390778F015
:2013E000AC014E5F5F4F2417350748F04E0F5F1F5093CF014093CE018193919302C0E0E04C
:20140000F0E0CF01DF91CF910895CF93DF93009709F487C0FC01329713821282C091D001FF
:20142000D091D101209781F420813181280F391F8091CE019091CF018217930779F5F09376
:20144000CF01E093CE016DC0DE0120E030E0AE17BF0750F412964D915C9113979D0141157E
:20146000510509F1DA01F3CFB383A28340815181840F951F8A179B0771F48D919C911197AF
:20148000840F951F02969183808312968D919C911397938382832115310529F4F093D101C0
:2014A000E093D0013EC0D9011396FC93EE9312974D915D91A40FB51FEA17FB0779F48081EA
:2014C0009181840F951F0296D90111969C938E938281938113969C938E931297E0E0F0E001
:2014E0008A819B81009719F0FE01EC01F9CFCE01029628813981820F931F2091CE01309123
:20150000CF012817390769F4309729F41092D1011092D00102C013821282D093CF01C093E3
:20152000CE01DF91CF910895A0E0B0E0EAE9FAE00C94FB08EC01CB01209719F40E946D097A
:20154000B8C0FE01E60FF71F9E0122503109E217F30708F4ACC0D9010D911C911197061779
:201560001707B8F00530110508F49FC0A801445051094617570708F498C002501109061BCC
:20158000170B019311936D937C93CF010E94050A8CC05B01A01AB10A4E01800E911EA09187
:2015A000D001B091D101612C712C60E070E0109709F449C0A815B905C9F5ED90FC901197F6
:2015C000670142E0C40ED11CCA14DB0478F147018A189B08640142E0C40ED11C1296BC90D5
:2015E00012971396AC91B5E0CB16D10440F0B282A38391828082D9018D939C9309C00E5F13
:201600001F4F0E0D1F1DF90111830083EB2DFA2F6115710531F0DB011396FC93EE93129768
:2016200044C0F093D101E093D0013FC06D917C9111976616770608F43B01BD0112960D9027
:20164000BC91A02DB4CF6091CE017091CF0168157905E9F468167906D0F440910001509110
:2016600001014115510541F44DB75EB76091040170910501461B570BE417F507C0F4F09380
:20168000CF01E093CE01F901918380830EC00E946D097C01009759F0A801BE010E94850B4A
:2016A000CE010E94050AC70104C0CE0102C080E090E0CDB7DEB7EEE00C9417091F93FC0167
:2016C00099278827BC01E89411911032E9F3193010F01E30C8F31B3251F01D3249F468943A
:2016E00006C00E94950B610F711D811D911D119110531A30B0F33EF490958095709561953F
:201700007F4F8F4F9F4F1F910895FB01DC0102C001900D9241505040D8F70895FB01DC01B1
:2017200001900D920020E1F70895592F482F372F262F660F771F881F991F660F771F881F0E
:20174000991F620F731F841F951F660F771F881F991F0895F999FECF92BD81BDF89A992732
:2017600080B50895F894FFCF0000D2018000000000007D03F904FF0218030A035B030D0ACF
:10178000006E616E00696E66006F7666002E000066
:00000001FF
